:020000040000FA
:0300000002009269
:10006B0002018E00000080FB1200C2B900030200E7
:10007B007C75820275830274001200A475826E7502
:10008B00830074001200A475D0007581BF75100039
:10009B00751102759F00020073C09FF59FE473D02A
:1000AB009F22D083D082C09FE493C0E0740193C0A1
:1000BB00E0740293F59F227901221200ADB001008A
:1000CB001200ADDF01001200ADEC0100C0D0251015
:1000DB00C582C0E0E51134FFC583C0E0E510C395D0
:1000EB008224F310AF0885831185821080088583E5
:1000FB0011858210D2AFC8F0A3E9F0A3EAF0A3EB0D
:10010B00F0A37908E709F0A3D8FAECF0A3EDF0A37C
:10011B00EEF0A3EFF0A3D0E0F0A3D0E0F0A3D0E09B
:10012B00F0A3E520F0A3E5F0F0A322851183851061
:10013B0082E0C0E0A3E0F9A3E0FAA3E0FBA3780818
:10014B00E0F608A3DFFAE0FCA3E0FDA3E0FEA3E0EA
:10015B00FFA3E0C0E0A3E0C0E0A3E0F5D0A3E0F58F
:10016B0020A3E0A3F5F010AF0885831185821080E2
:10017B0008858311858210D2AFD082D083D0E0F86E
:10018B00D0E032C0E074F21200D77A0A7B00120082
:10019B00C5D2F0A29030F001B39290758900C2C520
:1001AB007F01020136EAF8EBF9E824FFFAE934FFA4
:1001BB00FBE849601C78007900C3E89417E99402C6
:1001CB00A2D265D03350DEE82401F8E93400F9807F
:1001DB00E80200AA43FD2043FE01C290D285020033
:1001EB00AA53F37F53FD7F43AB08858C8CD2BD752F
:0F01FB008900D2AF0200AA1200CB1200D180FE01
:040000050000009265
:00000001FF
