:020000040000FA
:0600000002011D0228BBF5
:03002B00022FFEA3
:03003300022FE0B9
:0300530002292E51
:03006B00022FB7AA
:1000830002276FE5C754F84401F5C7790122000040
:100093000080FB120086B90003020107E47921788E
:1000A30008B800028004F709D8FCE479297802B87B
:1000B30000028004F709D8FCE4900281785A790899
:1000C3008002F0A3D8FCD9FA781A90014D7A01BACC
:1000D30000028007E493A3F608DAF99009DAAA820A
:1000E300AB8390014E787E79058015E493A3AC82AF
:1000F300AD838A828B83F0A3AA82AB838C828D83A8
:10010300D8E9D9E77582BC7583DB740312012F75B7
:100113008291758300740012012F75D00075813FA1
:10012300751881751902759F00020096C09FF59F8F
:10013300E473D09F22D083D082C09FE493C0E07445
:100143000193C0E0740293F59F2201FF0000B40005
:100153000028002800283075A000A000A000A000FF
:1001630000080008E001F00010001000100010006B
:100173001000100050005000500010001000D00775
:100183000000000000000F000100050030750700AB
:100193001000010081FF0000FFC907E707CF07FF39
:1001A30002020208025000A0000000E80302B88621
:1001B300010000898602B4860100002F0A02E68648
:1001C300010000B20202B486010000300A02AC86CC
:1001D300010000C80202B486010000310A02AA86A7
:1001E300010000CA0202B486010000320A02A88696
:1001F300080000CB0202B486010000330A02A6867F
:10020300010000340AFF0100FF2002B8860100004C
:100213008F8602B486010000980A02A486000000BB
:10022300000002B0860300001803AB0DAB0DAB0D4D
:10023300AB0DAB0DAB0DAB0DAB0DAB0DAB0DAB0DFB
:10024300AB0DAB0D391051103310FFFF11019901A4
:100253000F1264040102B886010000958602B48679
:10026300010000E00A02B686010000E10A02B0863E
:10027300030000840702A286010000E20A020202D0
:10028300020202020202010D000000100102B88600
:10029300010000868602B4860100000C0B029A86D8
:1002A3000100008A0702B4860100000D0B029C8640
:1002B300010000318402B4860100000E0B029E8609
:1002C300010000FA8302B4860100000F0B02A0862E
:1002D300010000338302B486010000100B02AE86D6
:1002E300010000458302B486010000110B02C2869F
:1002F300010000698302B486010000120B02C48668
:100303000100000F8302B486010000130B02C686AE
:10031300010000168402B486010000140B02C88693
:10032300010000150B000101020203040405060687
:10033300070708090901E803053F10FF00013075AD
:10034300030201060000000000000000000000009E
:10035300000000000000000000000000000000009A
:10036300FFFF0600800CE8030502010609424C4525
:100373004D435502F0FF6715000079150A43686184
:100383007261637465726973746963203100024337
:1003930068617261637465726973746963203200A2
:1003A3000843686172616374657269737469632079
:1003B30033001043686172616374657269737469B1
:1003C300632034000A54656D7065726174757265DB
:1003D3002055706461746520436F6E666967001A07
:1003E30043757272656E742054656D7065726174C5
:1003F300757265000A446576696365204E616D65B3
:1004030020436F6E666967000A54656D706572619B
:100413007475726520416C65727400024144433403
:10042300204144433520526561642056616C7565F3
:10043300203134426974000A50574D20436F6E6671
:1004430069670002B886010000928602B486010043
:10045300000B0C02CC86030000970902B286010050
:10046300000C0C02B4860100001D0C02CE860100B4
:1004730000980902B2860100001E0C02B486010036
:10048300002F0C02D086020000990902B2860100F7
:1004930000300C02B486010000410C02D286000039
:1004A300009A0902B0860300009B0902B28601008C
:1004B30000420C02B486010000530C02D4860300F0
:1004C30000A10902B286010000540C02B4860100A7
:1004D300006E0C02D686030000A60902B086030054
:1004E30000AB0902B2860100006F0C02B486010062
:1004F30000830C02D886030000B10902B286010012
:1005030000840C02B486010000970C02DA86030013
:1005130000C60902B286010000980C02B4860100ED
:1005230000AA0C02DC86010000CB0902B28601009E
:1005330000AB0C02B486010000C60C02DE86030089
:1005430000CE0902B286010000C70C104B6579206A
:1005530050726573732053746174650002B8860129
:1005630000008C8602B486010000DA0D02E28600E8
:100573000000D30902B086030000D40902B2860149
:100583000000DB0D303132333435363738394142F0
:100593004344454600286E756C6C20706F696E7419
:1005A300657229003F3F3F000000807F0000803FCD
:1005B300F9021550B743BA5100E7DB2E0000A04003
:1005C30010000000080000001201382ACA031201BB
:1005D3003841CA0312013870CA03120138A9CA0389
:1005E300120138D1CA03120138FFCA0312013816A7
:1005F300CB031201382DCB0312013843CB03120175
:10060300386ACB031201387DCB0312013893CB0335
:10061300120138A6CB03120138CBCB031201388F5A
:10062300DA021201388EDB02120138C3DB02120137
:1006330038E4DB02120138F4DB0212013815DC0264
:1006430012013821DD02120138EEDD021201386198
:10065300DE02120138E7DE021201382ADF0212013C
:100663003861DF02120138E7DF02120138B9E00214
:1006730012013817E1021201382FE102120138A9E1
:10068300E102120138ACE102120138AFE1021201BA
:100693003856E2021201386EE2021201389EE2027B
:1006A300120138BEE202120138ACE30212013862D1
:1006B300E402120138DC90031201380491031201A1
:1006C30038329103120138699103120138D1910331
:1006D3001201381A9203120138659203120138A3EA
:1006E3009203120138E092031201380E93031201B0
:1006F30038B59303120138BF9303120138CC930327
:10070300120138FF9303120138C19403120138CD4B
:100713009403120138E59403120138EF9403120194
:10072300386FD7031201387DD70312013895D703E9
:10073300120138ADD70312013827CE01120138C593
:10074300CE011201383DCF0112013852D0011201FE
:10075300388CD00112013835D1011201380AD20187
:100763001201386ED301120138C5D3011201384C7E
:10077300D40112013833D50112013880D501120199
:10078300380ED60112013832D60112013807D801CA
:1007930012013848D8011201386AD801120138EB26
:1007A300D801120138D5D9011201389BDA0112019F
:1007B30038008003120138D280031201387B810391
:1007C300120138BE81031201384B8203120138D75C
:1007D3008203120138B88303120138E7830312013D
:1007E30038E384031201382B85031201382D860365
:1007F300120138718603120138978603120138D427
:10080300DA0312013896AA03120138ACAA031201C3
:1008130038D2AA03120138FAAB0312013804AC032D
:100823001201385DAD031201385DAE031201380CBD
:1008330087031201384188031201387488031201B7
:1008430038BE88031201387C8A03120138CABE01FC
:100853001201382DBF0112013872C0011201388212
:10086300C001120138A5C001120138F0C001120104
:100873003895C1011201388BC20112013855C301E9
:10088300120138CDC4011201380FC501120138AD70
:10089300C501120138FAC50112013820C60112013F
:1008A300380EC80112013813C801120138F4C90106
:1008B30012013848CA01120138AACA01120138D2FA
:1008C300CA0112013876CB0112013838CC0112016A
:1008D3003869CC011201386CCC01120138B4CC0157
:1008E300120138F6CC011201385DCD01120138A78F
:1008F300FD02120138BAFD02120138D3FD021201C2
:10090300381EFE02120138F9FE0212013888FF0276
:10091300120138D3FF02120138243000120138309B
:100923003000120138693000120138AE3000120174
:1009330038653100120138EB3100120138503200B2
:100943001201387C3200120138B53200120138C965
:100953003400120138A53600120138903800120114
:1009630038C73900120138273C00120138133D0003
:10097300120138593E00120138663F0012013883D4
:100983003F00120138BB3F00120138D53F0012016E
:10099300383D4000120138D7440012013878450031
:1009A300120138C94500120138F045001201383EE2
:1009B30046001201385C4600120138B046001201AD
:1009C300388947001201381049001201389849004C
:1009D300120138328C031201383C8C0312013807A0
:1009E3008D03120138228D03120138488D03120141
:1009F300388C8D03120138C48D03120138ED8D0339
:100A0300120138668E031201387B8E03120138906F
:100A13008E03120138C78E03120138DB8E031201D5
:100A2300380C8F03120138468F03120138728F037B
:100A3300120138C88F031201381C90031201386564
:100A430090031201388F9003120138B490031201FE
:100A530038C6A20312013890A30312013873A4030A
:100A6300120138E9A4031201382BA50312013858E7
:100A7300A6031201387EB602120138A7B60212018C
:100A830038C0B60212013805B802120138E3B802C1
:100A930012013802B9021201388FB902120138D299
:100AA300B9021201381FBB02120138BEBB02120188
:100AB300383DBE02120138D4BE02120138A8BF026B
:100AC3001201388AC002120138F6C10212013889B4
:100AD300C2021201387FD303120138E8D303120193
:100AE300383CD40312013863D403120138259A0326
:100AF300120138929A03120138DD9A03120138D297
:100B03009B03120138CE9C03120138B89D031201D6
:100B130038CDE4021201380FE502120138E9E5028B
:100B2300120138C2E602120138BDE7021201389CF5
:100B3300E80212013808E902120138CFE902120172
:100B4300383AEA02120138A1EA02120138CCEA0269
:100B53001201383DEB02120138D0EB021201383991
:100B6300EC021201384EEC0212013896EC0212012B
:100B730038AFEC0212013814ED0212013817ED02FE
:100B8300120138B5B503120138DDB5031201381B64
:100B9300B603120138D9B60312013844B703120160
:100BA3003860B70312013888B703120138B8B703A6
:100BB300120138C7B70312013841B803120138676D
:100BC300B803120138008002120138DD81021201DC
:100BD30038D88302120138AB8402120138F684023A
:100BE30012013841850212013853850212013893EC
:100BF3008502120138C885021201381486021201D7
:100C030038438602120138668602120138B386021F
:100C13001201383C87021201384989021201383423
:100C23008B02120138778B02120138DC8C0212011D
:100C3300381D8D02120138908D02120138DC8D02AD
:100C4300120138078E0212013800C3021201382B39
:100C5300C30212013812CA0212013836CC02120141
:100C630038F1CD021201384ECF02120138FF49008C
:100C7300120138964A00120138C34A00120138099A
:100C83004B00120138484C00120138DF4D001201AD
:100C930038594E00120138744E00120138E94E00E3
:100CA30012013818500012013873510012013875BF
:100CB3005200120138D25300120138EB53001201D3
:100CC300384854001201382A55001201385D550086
:100CD300120138CD550012013847560012013896DB
:100CE300560012013862570012013867580012018A
:100CF30038465900120138D159001201383F5A00C1
:100D0300120138B35A00120138DC5A001201389B21
:100D13005B00120138155D00120138325D001201CB
:100D230038515D00120138E25D00120138075E00A0
:100D33001201382F5E00120138AA5E001201380436
:100D43005F0012013858600012013815610012016A
:100D530038E86100120138318E02120138818E02A7
:100D63001201388D8E021201386A8F021201389AED
:100D73008F02120138D28F021201385190021201F0
:100D830038899002120138DB90021201381891025F
:100D93001201383D93021201386995021201386439
:100DA30097021201383F9902120138F57F001201B0
:100DB30038CA9A01120138149B01120138F3A001B9
:100DC30012013874A201120138D3A801120138CEDE
:100DD300A9011201380BAA011201382EAA0112012E
:100DE3003870AA0112013879AA0112013883AA01C5
:100DF3001201386FAB0112013863AC0112013816CE
:100E030062001201388E6C00120138946C001201DA
:100E130038A0730012013818B203120138AEB203BE
:100E2300120138C4B2031201383EB30312013894DD
:100E3300B303120138D2B3031201382FB4031201E2
:100E430038ACB403120138B5B403120138C1B4038A
:100E5300120138D4B40312013810B5031201382635
:100E6300B50312013885B5031201387A9E031201C6
:100E730038879E03120138A19E03120138E09E03B6
:100E83001201381E9F03120138839F031201389801
:100E93009F03120138A39F03120138B09F0312016D
:100EA30038C79F03120138D59F03120138E09F030F
:100EB300120138EC9F03120138FB9F03120138061D
:100EC300A00312013829A003120138D2A003120192
:100ED30038E2A003120138FCA00312013819A10360
:100EE30012013835A1031201385AA10312013864E3
:100EF300A10312013878A10312013897A10312014B
:100F030038F8A103120138FEA10312013804A20329
:100F13001201380AA20312013816A203120138493A
:100F2300A203120138059C02120138879C021201A8
:100F330038309D02120138789E0212013886A002D1
:100F43001201386CA102120138A1A102120138C3A7
:100F5300A1021201386CA2021201383CA402120150
:100F63003865A402120138DDA4021201380FA5026C
:100F73001201381CA50212013867A5021201388B31
:100F8300A502120138DCA702120138E6A8021201F9
:100F93003842A90212013851EB0112013862EC0107
:100FA30012013846ED0112013850ED011201387279
:100FB300ED011201387EED0112013822EF01120119
:100FC300384FEF0112013865F001120138BAF00110
:100FD30012013809F201120138DEF2011201383A26
:100FE300F301120138A5F301120138DAF3011201FA
:100FF300381DF401120138E7F601120138FFF6013A
:1010030012013890F7011201389EF701120138EBF3
:10101300F701120138F9F70112013865F8011201DD
:1010230038E0F80112013837F90112013871CF02A3
:1010330012013893CF02120138A4D102120138638E
:10104300D4021201388DD5021201384BD602120197
:101053003837D70212013871C80312013896C80312
:101063001201380CC9031201385B7800120138648D
:1010730078001201386D78001201384579001201A9
:1010830038F67A00120138267B00120138517B00B2
:10109300120138817B00120138AC7B00120138E069
:1010A3007B001201380C7C001201384F7C001201C6
:1010B300387A7C00120138C17C00120138167D0099
:1010C300120138587D00120138B27D00120138DD5B
:1010D3007D001201382C7E001201385C7E00120163
:1010E30038877E00120138B57E00120138D87E00A1
:1010F300120138787F00120138A47F00120138D121
:101103007F00120138DB7F00120138EB7F001201F0
:1011130038A4D003120138BCD00312013807D1031D
:1011230012013871F5021201387BF502120138BC45
:10113300F50212013805F6021201383FF6021201D8
:101143003895F602120138B6F60212013865F90233
:101153001201386EF902120138C2F902120138EB9A
:10116300F902120138F5F90212013863FA02120189
:1011730038F3FA021201384EFB021201387CFB02EB
:1011830012013804FC0212013843FC0212013878C0
:10119300FC021201388AFC02120138A9FC02120176
:1011A30038B2FC0212013879FD0212013896D503D8
:1011B300120138F6C2031201382CC303120138603E
:1011C300C303120138ADC4031201383EDA0312011E
:1011D3003854DA031201385EDA03120138A8DA034D
:1011E3001201385DDB03120138849503120138972D
:1011F300950312013858960312013897960312018A
:1012030038B49603120138ED96031201383A970366
:101213001201386C9703120138A39703120138ACFB
:101223009903120138189A0312013817CF031201D8
:10123300383ACF0312013869CF0312013801D003C2
:1012430012013819D0031201385BD003120138AFF1
:10125300B803120138E6B803120138FDB8031201CE
:1012630038A9B90312013842BA03120138CABA03C2
:1012730012013897BB03120138BCBB03120138E6D5
:10128300BB03120138B6C603120138CEC6031201DE
:10129300380AC7031201384CC7031201389CC7032D
:1012A300120138B4C70312013814DC03120138EAFF
:1012B3008601120138C88801120138678A011201B8
:1012C30038128B01120138928B01120138178C01ED
:1012D300120138408C011201381B9001120138921F
:1012E3009001120138A99101120138E39101120111
:1012F300382492011201386B9301120138C1930112
:101303001201380A9401120138799401120138E567
:1013130094011201381695011201382E950112011C
:10132300384796011201385796011201380D98017A
:10133300120138249801120138569801120138F825
:1013430099011201388C9A0112013846D80312010F
:101353003857D803120138F7D8031201386ADC036F
:10136300120138A9DC031201382FDD031201388D75
:10137300D6031201389DD603120138B5D6031201E4
:101383003869D70312013894D40312013819D503ED
:101393001201387DD503120138DDCB031201380663
:1013A300CC031201386CCC031201388CCC0312012C
:1013B30038DDCC0312013838CD0312013872CD0366
:1013C30012013875CD03120138B2A603120138D7C2
:1013D300A603120138F4A60312013811A703120160
:1013E3003836A70312013857A70312013881A70320
:1013F3001201383EA803120138BCA803120138E3D6
:10140300A803120138EDA80312013812AA0312012E
:101413003867AE031201387EAE03120138F8AE030B
:10142300120138DCAF03120138B3B103120138F8EB
:101433007F00120138C2C0031201384CC2031201EB
:1014430038ADC203120138F3C20312013840DD0381
:1014530012013845DD031201384CDD031201384E09
:10146300DD03120138A2D903120138A4D9031201F2
:101473003828DA0312013833DA031201387FCD0337
:10148300120138D1CD0312013844CE03120138B111
:10149300CE031201387BBE03120138A5BE0312012D
:1014A3003874BF0312013850C0031201383BED02F8
:1014B30012013807EE0212013848EE021201388297
:1014C300EE02120138E0EE0212013834EF0212018B
:1014D3003892EF0212013828F00212013830F1027B
:1014E300120138BAF20212013858F302120138BF5E
:1014F300F302120138D2F302120138C6F4021201C8
:10150300380FF5021201388FA902120138C1AC025B
:1015130012013852AE02120138A9AE02120138C6C6
:10152300AE0212013846AF02120138C2B0021201F4
:101533003891B102120138FEB402120138E8B50243
:1015430012013819D203120138D0DC0112013820FC
:10155300DD0112013834DD01120138BBE001120153
:10156300385AE1011201380CE201120138B2E301E9
:10157300120138E2E40112013861E6011201388BED
:10158300EA011201380DEB01120138CFF901120102
:10159300381FFA011201383CFA011201382DFB0100
:1015A30012013835FC011201382DFD011201388E6C
:1015B300FF01120138E7C4031201382CC5031201DD
:1015C3003880C50312013805C6031201387DC603EE
:1015D300120138D2FF0112013802D9031201382C4B
:1015E300D903120138B3DC03120138E9DC03120119
:1015F3003811DD031201387BAE0112013899B301B2
:10160300E066701008A3E066700A08A3E066700441
:1016130008A3E06622C008C3E096F50808A3E09695
:10162300420808A3E096420808A3E0964208A2D223
:1016330065D033E5087001D3D00822C3E7960809C3
:10164300E7960809E7960809E79622C3E09608A3F8
:10165300E09608A3E09608A3E09622C008C3E096AC
:10166300F50808A3E096420808A3E096420808A3F9
:10167300E09645087001D3D00822080808E630E751
:1016830011121F39121695080808C64480C6181887
:101693001822181818E9799EC608CAC608CBC608C6
:1016A300CCC6C370207996CACBCC7019798ECBCCBB
:1016B30070137986CC700EF9802ACA33CACB33CB28
:1016C300CC33CC331930E7F2CCCBCA33501470048B
:1016D300EA30E00DE4CA3ACACB3BCBCC3CCC500257
:1016E30009C3E913C6CC182313C6CB18C6CA18C638
:1016F300F92212173520F01430E72B74FFFCFBFAA4
:10170300747F8022E4FCFBFA7480801AB48008BCE6
:1017130000F2BB00EF800F50EBF9E4C39AFAE49BAD
:10172300FBE49CFCE499C6CC18C6CB18C6CA18C601
:10173300F922E4C9C608CAC608CBC6D3330308CC0A
:10174300C63392F0C3947F402E94184019C9B90749
:1017530004CACBCC225025C309CA33CACB33CBCC62
:1017630033CC33D9F422F4600DC9CCC313CB13CBE0
:10177300CA13CAD9F6CC22E4FCFBFA2214FCFBFA06
:1017830022E6C33318461846184622E7C3331947DF
:101793001947194722181818E6084608700AE60878
:1017A300C3337005E633F4220822191919E70947F0
:1017B30009700AE709C3337005E733F4220922E607
:1017C300084608C3134608336002E633F422E709E8
:1017D3004709C3134709336002E733F4221217C2E0
:1017E30060251217D16020121784700302178E0828
:1017F3000808E76670101819E766700A1819E76693
:1018030070041819E76622F4221217C2601C12171B
:10181300D16017121784700712178E7001D322C07C
:10182300D012178E7006D0D0B322C32233D0D0503B
:101833001430E0F6C3E7960809E7960809E7960827
:1018430009E796B32220E0D5E6970809E697080949
:10185300E6970809E697B3221217C2601B1217D145
:101863006016121784700712178E600CB322C0D053
:1018730012178E7005D0D022C32233D0D05013302C
:10188300E0EBC3E7960809E7960809E7960809E736
:10189300962220E0E4E6970809E6970809E6970808
:1018A30009E69722001217C2604F1217D16012E7A0
:1018B300548066F6121798701112178E703B09093F
:1018C30009F4F618F618F618F6221217AD70151269
:1018D300178408080860EAE6447FF618768018E45F
:1018E300F618F622121784601612178E7012E4F699
:1018F30008F608F608E65480F609090918181822AC
:10190300EAC0E0EBC0E0ECC0E0EDC0E0E687F0A4A5
:10191300FBACF008E687F0A42CFCE435F0FA1809D8
:10192300E687F0A42C4B60027401CA35F0FCE43363
:10193300FB09E687F0D2F7A42CCB35F0FC1908E6B7
:1019430087F0A42BCC35F0FBE433FD0819E687F0D0
:10195300D2E7A42C4ACB35F0CD3400FC09E687F05E
:10196300D2E7A42DCC35F0FDE433FA0918E687F06D
:10197300D2F7A42CCD35F0CA3400FC08E687F0D2A8
:10198300E7D2F7A42ACC35F07A7E20E70B0ACB33D3
:10199300CBCD33CDCC33CC33CB3350147004ED30BB
:1019A300E00ED2F1E4CD3DCDCC3CCC3B5005DA0585
:1019B300C2F1EB547FC63308E63392F0FBE73309F9
:1019C300E733C39A502D2B70190C0D4C4D7015181D
:1019D30006E608C333700D20F10AA2F013F6E418EB
:1019E300800B4024E4F630F002768018F618F618DF
:1019F300F68024D33B14501074FFA2F013F618762C
:101A030080E418F618F6800FA2F013F618E63303F5
:101A1300F618ECF618EDF6D0E0FDD0E0FCD0E0FBD4
:101A2300D0E0FA221217D160461217C2603DE9686E
:101A33007008F618F618F618F622748067F7121A6B
:101A43005B090909748067F7221217C2601D121718
:101A5300D17005191919801A121798701F1217AD32
:101A6300C37003E6673319191940071818182208B9
:101A7300080874FFF618F618F618F6221217AD6068
:101A83001712178E702192F01217847019501720B5
:101A9300F014080808090909E7F61819E7F61819F0
:101AA300E7F61819E7F62212178460E6E869701F53
:101AB3000808E62480F608E436F618547FB47F0C51
:101AC300E654806007F6E418F618F622181822E99F
:101AD300C6CC08C6CD08C6CE08C6CFC0E0E8C0E075
:101AE300EAC0E0EBC0E009E9F809E7FA09E7FBE639
:101AF300F918E6F8C3EC98ED99EE9AEBC2E7F5F026
:101B0300EFC2E795F0500E600CEBCFFBEACEFAE99B
:101B1300CDF9E8CCF8EAA2E7D2E7FAEB33FB13F509
:101B2300F0EEA2E7D2E7FEEF33FFC5F013A2E730F2
:101B3300E601B313C5F0C3C0E0C0F07F00C39BFB55
:101B4300605B9418600C401AD0E023F9D0E0F802EF
:101B53001C2A8AF0E9486003D2F0E4AFF0FAF9F8FE
:101B6300803BEB30E40D89F0EA6003D2F0E4AFF0A0
:101B7300F9CAF8EB30E30D88F0EF6002D2F0AFF072
:101B8300E4CAC9F8EB54076014FBC3EA13FAE91378
:101B9300F9E813F8EF135002D2E0FFDBEDD0E0C019
:101BA300E030E739C3E49FFFF5F0EC98FC42F0ED39
:101BB30099FD42F0EE9AFE42F0D0E0F9D0E0F8E56C
:101BC300F0607AE923F9EE20E742D8028067C3EF99
:101BD30033FFEC33FCED33FDEE33FE80EAEC28FCFF
:101BE300ED39FDEE3AFED0E023F9D0E0F840028073
:101BF3001BC3EE13FEED13FDEC13FCEF135002D2E7
:101C0300E0FF08B800067F7F74FF802EEF33501784
:101C13008CF020F00260100CBC000C0DBD00080E0F
:101C2300BE000408E860DFE933E813FFEE2313FE88
:101C33004F4D4C8008E95480FFE4FEFDFCEE33EF8A
:101C430033F47004FCFD7E80D0E0FBD0E0FAD0E0FA
:101C5300F8D0E0CFC618CEC618CDC618CCC6F92228
:101C63001217C27004181818221217D1700D74FFBE
:101C7300F61819F61819F61819F622E7548066F6BD
:101C8300121784700F12178E70F014F608F608F608
:101C930008F680D112178E700CF608F608768008C5
:101CA300E6447F80EC1217B0700C12179B60BFE6FE
:101CB3005480F6E480BB12179B700519191980A58F
:101CC300E869700C763F18768018F618F6E8F92262
:101CD300E6CDC0E018ECC0E0E633CD33CDD313F648
:101CE300E719FCE7191933CC33C3947F400ECD9D1C
:101CF300502408E65480F6E418F6800FF4043D14EB
:101D0300501408E6447FF6187680E418F618F6D0E7
:101D1300E0FCD0E0FD22CCD313CCFD18E4C6CBC04D
:101D2300E018E4C6CAC0E00808ED08C633E613F6B7
:101D330018E433C675F003C3CA97CA09CB97CB1906
:101D43009C40047D08802EBD0003021E0C16B6FFC6
:101D5300050606081618C3CA33CACB33CB33CA27C2
:101D6300CA09CB37CB193CC37D08803E187D0820B8
:101D7300E75CC633C6CA33CACB33CB33DDF1D5F008
:101D8300EB30E77BCA97CA09CB974ACB199C406FC4
:101D93004B7025E620E0218066187D08C3CA97CAE8
:101DA30009CB97CB199CD3C633C6CA33CACB33CB23
:101DB3003350C9DDE7D5F0E1D3E4C636C608C636ED
:101DC300C608C636C608C636C61818188031C3CA30
:101DD30097CA09CB97CB199CB34097C633C6CA336E
:101DE300CACB33CB33DD34D5F02EC6A2E0C640C810
:101DF300CA27CA09CB37194A70BECB3CB480B9088D
:101E030008E63308E633601F181818D0E0FAD0E06C
:101E1300FBD0E0FCD0E0FD22187D08CA27CA09CB1D
:101E230037CB193CD3808013F618E4B67F11F6182C
:101E3300B6FF0EF618C60470D20808768080CAF67C
:101E430018F618F680C5080808EAC0E0EBC0E0867B
:101E5300F0E7A4FA180986F0E7A42AFA180986F02D
:101E6300E7A42AFA180986F0E7A42AFA1986F0E704
:101E7300A4FBE5F02AFA190886F0E7A42BFBE5F0AA
:101E83003AFA190886F0E7A42BFBE5F03AFA18189A
:101E93000986F0E7A4C5F02BFBE43AFA1908E7C575
:101EA300F0C6A426F6E5F03BFBE43AFA1886F0E721
:101EB300A4F6E5F00826F6E43B08F6E43A08F6D083
:101EC300E0FBD0E0FA22E4CFC0E0E4CEC0E0E4CD12
:101ED300C0E0E4CCC0E075F020C3E633F608E63397
:101EE300F608E633F608E633F6181818EC33FCED7B
:101EF30033FDEE33FEEF33FFC3EC9709ED9709EEA5
:101F03009709EF97191919400FFFEC97FC09ED9703
:101F1300FD09EE97FE191906D5F0BEECF709EDF7AA
:101F230009EEF709EFF7191919D0E0FCD0E0FDD05D
:101F3300E0FED0E0FF22181818E4C396F608E496F2
:101F4300F608E496F608E496F6226016080808C632
:101F5300C313C618C613C618C613C618C613C6D5E8
:101F6300E0EA227009080808226016181818C6C388
:101F730033C608C633C608C633C608C633C6D5E05B
:101F8300EA22E627F60809E637F60809E637F608EF
:101F930009E637F622E026F608A3E036F608A3E0C2
:101FA30036F608A3E036F622E026F008A3E036F082
:101FB30008A3E036F008A3E036F022C3E697F6085C
:101FC30009E697F60809E697F60809E697F622C3A5
:101FD300E096F008A3E096F008A3E096F008A3E0EB
:101FE30096F022E056F608A3E056F608A3E056F66C
:101FF30008A3E056F622E056F008A3E056F008A343
:10200300E056F008A3E056F022E647F60809E64753
:10201300F60809E647F60809E647F622E0F608A3BC
:10202300E0F608A3E0F608A3E0F622E6F008A3E64C
:10203300F008A3E6F008A3E6F022E0FAA3E0FBA38E
:10204300E0FCA3E0FD22EAF0A3EBF0A3ECF0A3EDA8
:10205300F022CAC0E0E6F0A308DAFAD0E0FA22CA16
:10206300C0E0E0A3C582CCC582C583CDC583F0A300
:10207300C582CCC582C583CDC583DAE6D0E0CA224A
:10208300C3E498F8E499F91220C48026C3E49AFAC9
:10209300E49BFBE920E7E91220C4E498F8E499F90A
:1020A30022C3E498F8E499F91220C4E498F8E49977
:1020B300F9C3E49AFAE49BFB22EB20E7CFE920E79C
:1020C300E0B90010BB0008E88AF084F8AAF022E423
:1020D300FBC8FA22EB70227B10C833C8C933C9335B
:1020E3005007C39AC3DBF280069A50012ADBEAC881
:1020F30033F4C8C933F4C9FA2275F008E4C833C805
:10210300C933C933C99AC99B5004C92AC93BD5F0FD
:10211300ECFBC833F4C8E4C9FA22600D08C6A2E791
:1021230013C618C613C6D5E0F322600C08C6C31342
:10213300C618C613C6D5E0F422700422600D18C673
:10214300C333C608C633C6D5E0F41822251810AF2A
:1021530008F518400215198008F51840021519D220
:10216300AF22C0D0251810AF08F51850020519800A
:1021730008F51850020519D2AFD0D0222518F582E0
:1021830010AF08F518400215198008F5184002151C
:1021930019D2AF851983222518F582E43519F58301
:1021A30022E4732518C582C0E0E51934FFC583C056
:1021B300E0E518C3958224F810AF0885831985825A
:1021C300188008858319858218D2AFCEF0A3E52045
:1021D300F0A37808E608F0A3DEFAEFF0A3E5812484
:1021E300FAF8E608F0A3E608F0A3E608F0A3080867
:1021F300E608F0A3E608F0A315811581D0E0FED030
:10220300E0F8158115811581E8C0E0EEC0E02225D4
:1022130018C582C0E0E51934FFC583C0E0E518C3E3
:10222300958224F910AF0885831985821880088563
:102233008319858218D2AFCEF0A3E520F0A37808E6
:10224300E608F0A3DEFAEFF0A3E58124FBF8E60845
:10225300F0A3E608F0A30808E608F0A3E608F0A355
:1022630015811581D0E0FED0E0F815811581E8C015
:10227300E0EEC0E022851983851882E0A3FEE0A387
:10228300F5207808E0A3F608DFFAE0A3FFE0A3C097
:10229300E0E0A3C0E0E0A3C0E0E0A3C0E0E0A3C0AF
:1022A300E010AF0885821885831980088582188518
:1022B3008319D2AFD083D082020135851983851863
:1022C30082E0A3FEE0A3F5207808E0A3F608DFFA96
:1022D300E0A3FFE0A3C0E0E0A3C0E0E0A3C0E0E030
:1022E300A3C0E010AF088582188583198008858212
:1022F30018858319D2AFD083D08222C0D02518C5C8
:1023030082C0E0E51934FFC583C0E0E518C39582B8
:1023130024F310AF088583198582188008858319F3
:10232300858218D2AFC8F0A3E9F0A3EAF0A3EBF0DB
:10233300A37908E709F0A3D8FAECF0A3EDF0A3EE34
:10234300F0A3EFF0A3D0E0F0A3D0E0F0A3D0E0F04F
:10235300A3E520F0A3E5F0F0A32285198385188275
:10236300E0C0E0A3E0F9A3E0FAA3E0FBA37808E070
:10237300F608A3DFFAE0FCA3E0FDA3E0FEA3E0FF81
:10238300A3E0C0E0A3E0C0E0A3E0F5D0A3E0F52024
:10239300A3E0A3F5F010AF088583198582188008A0
:1023A300858319858218D2AFD082D083D0E0F8D04C
:1023B300E03274048006740280027401C0E0F40405
:1023C30012217FD0E012205522740480047402800D
:1023D30000CCC0E0EDC0E0E518C39CCCAD195001C2
:1023E3001D10AF068C188D1980068C188D19D2AF6D
:1023F300122062D0E0FDD0E0FC22D083D082E9C07D
:10240300E0E493A3C386F0C5F095F0F908E493A341
:1024130086F0C5F095F0700BE493A3C3994005E9EA
:10242300048002A3E475F002A42582F582E5F03569
:1024330083F583D0E0F9E493A3C0E0E493C0E02202
:10244300D083D082ECC0E0EDC0E0E493A3FCE4933E
:10245300A3FDED4C600D12248FEC24FFFCED34FF43
:10246300FD80EFE493A3FCE493A3FDED4C600D1218
:1024730024CEEC24FFFCED34FFFD80EFD0E0FDD053
:10248300E0FCE493A3C0E0E493C0E022C0E0C3E433
:102493009396087401939618400FE49366700808A6
:1024A300740193661870007019A3A3C3E49396088C
:1024B3007401939618A3A3400DD0E0D0E0D0E002BE
:1024C300247FA3A3A3A3A3A3D0E022C0E0C0F088EA
:1024D300F0E4936670080874019366187000A8F01E
:1024E300A3A3700BD0F0D0E0D0E0D0E002247FA310
:0624F300A3D0F0D0E022AE
:1024FC0074F5122212EAFEEBFFEE2434F8EF3400EE
:10250C00F988088909EE2435F582EF3400F583E06B
:10251C00F8EE2437F582EF3400F583E0F50AEC850C
:10252C000AF0A4FCAAF0850AF0EDA42AFDE82CF828
:10253C00E43DF97A257B001220C4EA8508828509DE
:10254C0083F05407F87401B800028004C333D8FC3C
:10255C00C0E0E0131313541FF8EE28F8EF3400F921
:10256C00E8245DF582E93400F583D0E0F8E05860AA
:10257C0008EE2434F582EF801EEE2436F582EF341B
:10258C0000F583E0F5F0EA84A8F0EE28F8EF3400CB
:10259C00F9E82438F582E93400F583E0F97F040288
:1025AC0022BE74F5122212EAFEEBFFEE2434F58201
:1025BC00EF3400F583E0C0E0EE2435F582EF340013
:1025CC00F583D0E0F08E828F83A3A3A3A3A3A3A350
:1025DC00C082C0838E828F83A3A3A3A3A3E0F8A39E
:1025EC00E0F9D083D082E0C398F508A3E099F5090F
:1025FC00EE2480F582EF3400F583E064017069EE1F
:10260C002481F582EF3400F583E0F8A3E0F98E82A3
:10261C008F83A3A3A3A3A3A3A3E0FCA3E0FD8E82BB
:10262C008F83A3A3A3A3A3E0FAA3E0FBC3EA9CEBD1
:10263C009D5027C3EC98ED99402EC3EA98EB995026
:10264C00277CFD7D04EEFAEFFB120D09EE2480F5DC
:10265C0082EF3400F583E4F0800EC3EA98EB9940E6
:10266C00E0C3EC98ED9950D9EE2434F8EF3400F92E
:10267C00E8FCE9FDEE2435F582EF3400F583E0F853
:10268C00EE2437F582EF3400F583E0F50AE5088592
:10269C000AF0A4F508AAF0850AF0E509A42AF509C0
:1026AC00E82508F8E43509F97A257B001220C4EAFC
:1026BC008C828D83F05407F87401B800028004C337
:1026CC0033D8FCC0E0E0131313541FF8EE28F8EFD6
:1026DC003400F9E8245DF582E93400F583D0E0F8A4
:1026EC00E0586008EE2434F582EF801EEE2436F5B7
:1026FC0082EF3400F583E0F5F0EA84A8F0EE28F8D8
:10270C00EF3400F9E82438F582E93400F583E0F978
:10271C00122FA90225A9C082C0838518828519832E
:10272C00E0F8A3E0F9C3EA9CEB9D5012C3EC98EDE2
:10273C00994019C3EA98EB99501279018010C3EAB9
:10274C0098EB9940F5C3EC98ED9950EE7900D08355
:10275C00D08222EAC39CFAEB9DFB2200852187855F
:10276C0022C622C0E0C0D0E8C0E0E9C0E0EAC0E088
:10277C00EBC0E0ECC0E0EDC0E0C008C009C00AC08E
:10278C000BC082C083C0F0759B00906182E0A2E612
:10279C00400302284DE591A2E6400302284D7591B5
:1027AC00BF9003C2E064057008120E41120E4D80FA
:1027BC0003120E47752100120EA7E99003C3F0799E
:1027CC0000120E9B120C7F7A017B009003C1E0F982
:1027DC00121183907803E0644260030228969005FE
:1027EC005FE014F06003022896C2AF1227FA00785B
:1027FC002AD0E0F618D0E0F6E59F5407F970059062
:10280C00860E8003908612780812201FE9C4C0E05F
:10281C007829E65508F50808E65509F509740B788A
:10282C000812212DD0E02508F8906270E0A2E74054
:10283C00F8E8C333906272F0906270E0D2E0F080FE
:10284C0049E0A2E55024E591A2E5501E7591DF9078
:10285C0003C2E0640D70139003E4E004F06428708C
:10286C0002E4F07A00E0F9120F19906181E0A2E322
:10287C005009E5E9A2E3500375E9F7A3E0A2E7509C
:10288C0009E591A2E7500375917FD0F0D083D082F7
:10289C00D00BD00AD009D008D0E0FDD0E0FCD0E0BD
:1028AC00FBD0E0FAD0E0F9D0E0F8D0D0D0E032C0E4
:1028BC00E0C0D0C082C083906183E0A2E05009E503
:1028CC00BFA2E0500375BFFEE0A2E15009E5BFA234
:1028DC00E1500375BFFDE0A2E25009E5BFA2E25052
:1028EC000375BFFBE0A2E35009E5BFA2E3500375FB
:1028FC00BFF7E0A2E45009E5BFA2E4500375BFEFB7
:10290C00E0A2E55009E5BFA2E5500375BFDFE0A2E8
:10291C00E65009E5BFA2E6500375BFBFD083D08255
:10292C008088C0E0C0D0E8C0E0E9C0E0EAC0E0EBDD
:10293C00C0E0ECC0E0EDC0E0C0F0E5A7A2E6500FAF
:10294C00E5A1A2E6500953A7BF75A1BF122993E5D3
:10295C00A7A2E5500CE5A1A2E5500653A7DF75A18F
:10296C00DFE5A7A2E15009E5A1A2E1500375A1FDA5
:10297C00E5A7A2E2500CE5A1A2E2500653A7FB7515
:10298C00A1FBD0F00228A474F81222127521019038
:10299C0003C2E064067015120DD58A828B83A3A343
:1029AC00A3A3A3A3E0FAA3E0FB120E2FA2AFE43380
:1029BC00FED2AF9003C8E0640170187A207B0090BF
:1029CC0003C1E0F912120D7A207B009003C1E0F9EB
:1029DC00121189906182E0D2E6F090055EE06021F0
:1029EC0085C62280169003C7E064017008E5C654C2
:1029FC00F84405F5C653BEFC1227687401652160C6
:102A0C00E4EEA2E092AF7F010222BE008E238F245F
:102A1C00858228858327851882851983E0CEA3E0DB
:102A2C00CF852882852783EBC9EAC8EDCBECCA7524
:102A3C00F010C3E833C8E933C9EA33CAEB33CBC36C
:102A4C00EA9EF526EB9FF525B35004AB25AA26ECA0
:102A5C0033CCED33CDD5F0DAAE23AF242274EB12A8
:102A6C00221274FA12214F8A088B098C148D15903E
:102A7C0003C2E024F7C3940550069085D6022BCBF5
:102A8C00120DD58A0A8B0BAE0AAF0BEE4F700302F8
:102A9C002BC8AC08AD09851882851983AA82AB8333
:102AAC00120E5F8E828F83A3A3780812201F90854D
:102ABC00F67808121FE6851882851983780C122087
:102ACC001F9085F6780C121FE67808790C12163ECA
:102ADC00501F7808790C121FBE9086627808121667
:102AEC005E4047850810850911850A12850B1380F5
:102AFC0041850C10850D11850E12850F13781079F8
:102B0C0008121FBE908662781012165E501C75104B
:102B1C00007511007512007513017810790C121FD5
:102B2C00BE78107908121F8580089085D67810120F
:102B3C00201F74097810121F6690861E78081220C8
:102B4C001F78107908121EC98E828F83A3A3A3A3AA
:102B5C00A3A3E0F8A3E0F97AD07B031220C4880881
:102B6C008909E4F50AF50B78107908121F857404AD
:102B7C0012219AE0F8A3E0F97AD07B031220C4E882
:102B8C00FA8A08E4F5097810790812163E5007788D
:102B9C00107908121FBE9003C2E06408600AE0645A
:102BAC00066005E06405701C908666781012165E4F
:102BBC00501290866A7810121F988008908672784E
:102BCC001012201F851482851583781012202E7404
:102BDC00061221657F0E0222BE74F7122212120E0B
:102BEC007190055CE064017010906245E4F0A3F014
:102BFC0053F4F343FE0C5390F3120E1DE5C65480B0
:102C0C004449F5C6E59E547F644970F8906185741B
:102C1C000FF090055AE0F47002A3E0604E90055B53
:102C2C00E0600814601B14602E8040750801750963
:102C3C000090055AE0780812213CE508F452808097
:102C4C002A75080175090090055AE0780812213C94
:102C5C00E508F45290801475080175090090055A26
:102C6C00E0780812213CE508F452A079007F0202BA
:102C7C0022BE74F7122212E9FEEAFF74016E700C88
:102C8C007A807B009003C1E0F912118390301CE430
:102C9C0093F46008E493F9120C73800953C680E531
:102CAC009E547F70FA120E2390055CE06401700351
:102CBC00120C8B90055AE0F47002A3E0604B900567
:102CCC005BE0600814601A14602C803D7508017577
:102CDC00090090055AE0780812213CE508428080F2
:102CEC002875080175090090055AE0780812213CF6
:102CFC00E5084290801375080175090090055AE0AB
:102D0C00780812213CE50842A0120E71120DD58AEA
:102D1C00088B09A808A909E8496015E5E170FCE8E9
:102D2C002414F582E93400F583E0F46003E0F5E166
:102D3C0074016F700A7A019003C1E0F91211D70285
:102D4C002C7974F11222128A088B098C0A8D0B745F
:102D5C000F12219A780C12201F9085F67808121FFA
:102D6C00E69085F6780C121FE67808790C12163E60
:102D7C0050157808790C121FBE90866278081216CE
:102D8C005E401579018013780C7908121FBE90866D
:102D9C0062780C12165E40EB79007F080222BE743A
:102DAC00ED1222128A088B098C0A8D0B74131221D6
:102DBC009A780C12201F9085F67808121FE69085E1
:102DCC00F6780C121FE6780C790812163E40117832
:102DDC0008790C121FBEAA08AB09AC0AAD0B8022F5
:102DEC007510007511007512007513017810790CAF
:102DFC00121FBE78107908121F85AA10AB11AC12E5
:102E0C00AD137F0C0222BE9085F6780812201F8A23
:102E1C00828B837808121FF97F040222BE74F5128C
:102E2C0022128C828D83780812201F8A828B8378E1
:102E3C0008121FD2EA2404F8EB3400F98C828D833B
:102E4C00A3A3A3A3E0FCA3E0FD88828983C3E09C39
:102E5C00F0A3E09DF088828983C3E09420A3E094E2
:102E6C004E40229085DE780812201F8A828B837850
:102E7C0008121FAB8A828B83A3A3A3A3E02420F0A8
:102E8C00A3E0344EF0808074F5122212E9FE900516
:102E9C0014E0FAA3E0FBEEC333F8E433F974AD2885
:102EAC00F582748339F583E02AF508A3E03BF50934
:102EBC0078081223B99085DA12203D122A18740270
:102ECC001221658A088B098C0A8D0B7410780812F4
:102EDC001F4DAA08AB097F040222BE74F112221204
:102EEC008A0C8B0D8C0E8D0F740F12219AE0FAA3A5
:102EFC00E0FB741112219AE0F508A3E0F5097413B4
:102F0C0012219AE0FEA3E0FF78081223B9EA24010B
:102F1C00F508EB3400F509E4F50AF50B780C7908A3
:102F2C00121E49908676780812201F780C790812A8
:102F3C001E49AA0CAB0DAC0EAD0F122A187402125E
:102F4C0021658B09EA450960047A0180027A00EC5C
:102F5C002AFCED3400FDECF8EDF97A717B021220BD
:102F6C00C488088909E4F50AF50B8E828F837808EA
:102F7C0012202EECF8EDF97A717B021220C48A082B
:102F8C008B097405780812213C8E828F83A3A3A32E
:102F9C00A3E508F0A3E509F07F080222BEC082C0B9
:102FAC0083E9906000F0D083D08222C0E074F212EA
:102FBC0022FEA2AFE433FED2AFE589A2E1500312A8
:102FCC0013B7758900C2C5751A00EEA2E092AF7FE7
:102FDC000102235DC0E074F21222FEA2AFE433FEC4
:102FEC00D2AFE58BA2E050031213B7758B00C2E889
:102FFC0080D5C0E0C0D0E8C0E0E5A8D2AFC2C775AC
:0E300C001A00A2E792AFD0E0F8D0D0D0E032A8
:10301C00FFFFFFFFFFFFFFFFC082C083E9900A970D
:10302C00F00232A874F71221A6E99002E0F07C18A5
:10303C007D037AFF7BFF1209A99002E174FFF0A3D4
:10304C00F0A3E4F0A3F079051209319002E0E0F965
:10305C001208597AC77B09120B89023FB674F41215
:10306C0021A68A088B09EB548060309002E0E0F9CD
:10307C0012116B8A0A8B0BAE0AAF0BEE4F60138EDC
:10308C00828F83E064B07003120949EEFAEFFB12F1
:10309C001159AA08E5096480FB80047A007B0002C0
:1030AC00327774F21221A674FC12214FEAFEEBFF68
:1030BC00741212219A12449DEE4F70030231517416
:1030CC000212219AEEF0A3EF1234B2ECF0A3ED123F
:1030DC0034B2AA82AB83120853E9F50A706AE50888
:1030EC00450960648E828F83124483EE4F60567A5A
:1030FC00067B001211BF8A0C8B0DA80CA90DE84998
:10310C007005750A13804188828983E412315EEE62
:10311C00F0A3EF1244AEE508F0A3E509F09002E647
:10312C001231E59002E67005123F60801B123F4E93
:10313C008003EAFCEBFD8C828D831231E570F38CFD
:10314C00828D8380E3750A02A90A74041221650238
:10315C00469DF0A3124454A32274F21221A6890AAC
:10316C00E975F017A4FEAFF09002E5E4F09002E3ED
:10317C001231E5600A1211C59002E3E4F0A3F0EEFF
:10318C00FAEFFB1211BF8A088B09EA4509602FEE92
:10319C00FCEFFD79001211419002E3E508F0A3E584
:1031AC0009F07B0080081231CFE4F0A3F00BEBC3E5
:1031BC00950A40F2E50A9002E5F079008002791355
:1031CC0002469DEB75F017A4F8A9F09002E3E028F5
:1031DC00FAA3E0398A82F58322123BF2EA4B22747D
:1031EC00F41221A6740C12219A124478FEE9FF7590
:1031FC000800750900800CE5082401F508E5093480
:10320C0000F509C3E5089CE5099D503285080A853F
:10321C00090B7403780A12213CEA250AF8EB350BEA
:10322C00F988828983A3A3A3A3A3A3124035EE65D7
:10323C000A7003EF650B70BFE8FAE9FB80047A00B3
:10324C007B00802774F41221A67900EAA2E0501BBF
:10325C007508B075098578081223B97C047D007A4D
:10326C00997B0A12092B74021221657F04022278C1
:10327C00C082C0839002E61232AF601C88828983C0
:10328C00A3A3E06A7003A3E06B8882898370E8A330
:10329C00A3A3A3123BEE80047A007B00D083D082E0
:1032AC00020135124783E8492274EE1221A674FC00
:1032BC0012214FEAFEEBFF851882851983E4F0A3F7
:1032CC00F0EE2402123F40EE240512445BEE24047F
:1032DC00F50EEF123867E024FE603924FC604624BA
:1032EC00FE605224FE605E24FE70030233C824FE8E
:1032FC00700302342C24FE700302343B24FE700352
:10330C0002344A24FC700302345924FE7003023444
:10331C00680234A59002FF7417F0A3E41234BA12B9
:10332C0005D10234A5851882851983AC82AD831230
:10333C00094F023475851882851983AC82AD8312CE
:10334C000955023475850C08850D09740212219AF1
:10335C00AC82AD83850882850983123BEE12087717
:10336C008A0C8B0DAC0CAD0DEC4D603BE4F50CF503
:10337C000D780C1223B9750CFF750D02780C122305
:10338C00B9750C00750D03780C1223B97408122151
:10339C009A1223D01248FF122165E9F50C700B121A
:1033AC003BE41205E9800F750C01850882850983C1
:1033BC001234A8123F60850C080234787402122172
:1033CC009AAC82AD83850C82850D831239B9603C31
:1033DC00850C82850D83A3A31223D07510FF751164
:1033EC000278101223B9751000751103781012238E
:1033FC00B9740812219A1223D01248FF122165E9E0
:10340C00F509700B123BE41205EF800F750901856D
:10341C000C82850D831234A8123F60850908804CFC
:10342C00851882851983AC82AD8312095B803A853D
:10343C001882851983AC82AD83120961802B8518A3
:10344C0082851983AC82AD83120967801C85188232
:10345C00851983AC82AD8312096D800D8518828528
:10346C001983AC82AD83120973E9F508E50860296C
:10347C008E828F83A3E06414601F850E82850F8378
:10348C00E09002FF1234B212477F900300123F60AB
:10349C00E508A31234BA1205CB023E4F12478385BE
:1034AC00188285198322F085188285198322F07C75
:1034BC00FF7D02850A82850B83123BF22274EE1289
:1034CC0021A674FC12214F8A0A8B0B8C0E8D0FEAED
:1034DC002405F508EB3400F5097C157D0079007A9C
:1034EC00FF7B02121141E5082402F50CE509124498
:1034FC005E85188285198385821085831178101258
:10350C0023B9850882850983A3A3A3A31239B0121A
:10351C0023B9E5082405F510E5093400F5117810F8
:10352C001223B9850C82850D83123D051208717426
:10353C00061221658A108B11AE10AF11E50A240218
:10354C00F50AE50B123F43EE4F70030236878017E6
:10355C00740212219A123BEE88828983EAF0A3EB63
:10356C00F09002FFE004F09002FFE0C394054003EA
:10357C00023687E4F510F51178101223B97510E8AE
:10358C0075110278101223B97510E97511027810B3
:10359C001223B9740612219A1223D07910EEFCEF83
:1035AC00FD124901122165E9705E85088285098347
:1035BC00A3A3A3A3A3A3A3E0F89002E8E068704838
:1035CC001239B01223B97CE97D02E5082408FAE52A
:1035DC00093400FB12113B7402122165E960298E3B
:1035EC00828F83A3A3A3A3123BEE9002FFE0F510FE
:1035FC007402781012213C74002510F58274033586
:10360C0011F583EAF0A3EBF0740212219A85821073
:10361C0085831178101223B9740212219A1223D0C7
:10362C00850C82850D83123C141221658A108B1136
:10363C00AE10AF119002FFE0F51075110074027816
:10364C001012213C74FF2510F874023511F9888290
:10365C008983A31231E57003023553E8240308086B
:10366C0008E93400F9EE4F600302355C88828983E7
:10367C0074FFF0A3F09002FFE004F09002FFE06012
:10368C000A123BE41205DD7900800B85088285095E
:10369C0083123F57790A023E4F74EA1221A674FE38
:1036AC0012214F8C128D13EA2405F50CEB1248E90C
:1036BC00124487750800750900EA2402F510EB34F2
:1036CC0000F51185188285198385820A85830B780C
:1036DC000A1223B9850C82850D83A3A3A3A31238E8
:1036EC007D1223B9E50C2405F50AE50D123F43784C
:1036FC000A1223B9850C82850D8312388112087148
:10370C0074061221658A0A8B0BEA450B700302388A
:10371C0022EA2404F50EEB1238671244878A828B56
:10372C0083A3A3A3E0F9851082851183123BF86073
:10373C0003023822E4F514F51578141223B9751424
:10374C00E875150278141223B97514E97515027809
:10375C00141223B9740612219A1223D07913AC0ACD
:10376C00AD0B851082851183124907122165E9F58D
:10377C000960030238229002E8E0F8E5087009E0DD
:10378C002402900300F08014900300E0FCE8240273
:10379C00FAE43400FBEA6C7001EB707E850882AAB7
:1037AC00821239A7941412399F506B850E82850FA3
:1037BC0083E0C0E074012A12385ED0E0F005088581
:1037CC000E82850F83A3E0C0E085080A7401250AE8
:1037DC0012385ED0E0F005089002E812387D122312
:1037EC00B97CE97D0285080A7401250A1238711228
:1037FC0021659002E8E02508F50874FF6E700374EB
:10380C00FF6F6012EE24010EEF3400FFE508C39445
:10381C001450030236CFE5086013123C0285108267
:10382C00851183123BEE1205E379008014E50970D3
:10383C000375090A851282851383EEF0A3EFF0A9B4
:10384C000974021221657F0E02227885080C74011E
:10385C00250CF58274033400F583223400F50F85B2
:10386C000E82F58322FA74033400FB1211297402C0
:10387C00221244BD22A3A312388722123F4EFDEE22
:10388C00FAEFFB2274EE1221A674FE12214F8C0E5D
:10389C008D0FEA2405F50CEB12445E750B009002BB
:1038AC00FFE4F0F50AEA2402F508EB3400F5098090
:1038BC00449002FFE0FA9002E8E0F81239A794175E
:1038CC0012399F400D9002FFE0F87416C3989002D5
:1038DC00E8F01239B01223B97CE97D0274002AFA9F
:1038EC0074031238741221659002E8E0F89002FF1C
:1038FC00E028F0050AE50C2416F582E50D12386275
:10390C00E0F8E50AC39850749002FFE0C394165097
:10391C006BE50AC333F8E433F9E50C28FEE50D3901
:10392C00FF851882851983AC82AD838E828F8312BA
:10393C0039B97008750B01123F538050E4F510F53E
:10394C001178101223B97510E87511027810122332
:10395C00B97510E975110278101223B97406122189
:10396C009A1223D079168508828509831249071289
:10397C002165E9F50B70030238BD80BB7CFF7D022D
:10398C00850882850983123BEE1205F5A90B74029A
:10399C00023E51E99400C365D03322EA28F8E4349E
:1039AC0000F9E822E0F510751100781022123E465D
:1039BC008A108B11AC10AD11EC4D2274EA1221A6B9
:1039CC0074FC12214F8A0C8B0D8C128D13EA24057A
:1039DC00F50AEB123F43750800750900E50A24024D
:1039EC00F510E50B3400F511740212219A85820E44
:1039FC0085830F780E1223B9850A82850B83A3A3C6
:103A0C00A3A31244631223B9E50A2405F50EE50BB2
:103A1C003400F50F780E1223B985108285118312AC
:103A2C003F49123BE812087174061221658A0E8B0D
:103A3C000FAE0EAF0FE50C2402F50EE50D3400F5BC
:103A4C000F80388882898374FFF005081238577408
:103A5C00FFF005089002E8E0F50C750D00780C12EB
:103A6C0023B97CE97D0285080C7401250C12387190
:103A7C001221659002E8E02508F508EE4F60278ECC
:103A8C00828F83A3A3A3E0F9850E82850F83123B5B
:103A9C00F8EE240412445BE96027850C82850D83C3
:103AAC00123BDA123F60E5087003023BC0123C0285
:103ABC00850E82850F83123BEE1205FB7900023BCB
:103ACC00D5E4F514F51578141223B97514E87515A9
:103ADC000278141223B97514E9751502781412239F
:103AEC00B9740812219A1223D07911EEFCEFFD85DE
:103AFC000E82850F83124907122165E9F509709A28
:103B0C00850882AA82EA9002E87009E024049003F6
:103B1C0000F08025E0F8900300E0F514E82404FCA4
:103B2C00E43400FDEC65147001ED70811239A7943A
:103B3C001212399F4003023AB9850C82850D83E03D
:103B4C00C0E074012A12385ED0E0F00508850C82C2
:103B5C00850D83A3E0C0E0123857D0E0123C1D85E0
:103B6C00820C85830D780C1223B9740412219A12DD
:103B7C0023D0851082851183123C141221658A0C86
:103B8C008B0DAE0CAF0D85080C7401250CF874036D
:103B9C003400F9EE4F7003023A4F85188285198371
:103BAC00E088828983123C1DA3E0C0E0123857D014
:103BBC00E0023A5DE509700375090A850A82850BF6
:103BCC0083123BDA123F60A909740402384F124782
:103BDC0083851282851383227CFF7D02850A828570
:103BEC000B83123BF222E0FAA3E0FB22123BF2120F
:103BFC00085FE9F50922900300E0F5F0E5088490F0
:103C0C0002FFF07CFF7D022212388712087D7404BB
:103C1C0022F005088518828519832274EC1221A6DE
:103C2C0074FE12214F8A088B098C0E8D0FEA240525
:103C3C00FEEB3400FF123E30EE241812445BEA45D2
:103C4C000B7003023CD3123E195029123CF88A1017
:103C5C008B11EA4511606B7912AC0AAD0B850882A9
:103C6C00850983123BEE8510828511831221A4E90C
:103C7C00F50A7058E4F50AF50B780A1223B98E820E
:103C8C008F83A3A3E0F50A780A1223B9EE2403125A
:103C9C003F40780A1223B98E828F83123D05120998
:103CAC00977406122165E9F50A7021850C82850D41
:103CBC0083E0701F850882850983123BEE12060192
:103CCC008011750A0E8009750A018004E50A6003EB
:103CDC00123F53850C82850D83E0600479008002CD
:103CEC00A90A74021221657F0C022278851882853C
:103CFC001983123BF212098522123F4EFD85088270
:103D0C00850983123BF22274EE1221A674FE122155
:103D1C004F8A088B098C0C8D0DEA2405FEEB3400C0
:103D2C00FF750E00123E30EA450B7003023DF71290
:103D3C003E19502C123CF88A0E8B0FEA450F604A44
:103D4C007912AC0AAD0B850882850983123BEE858E
:103D5C000E82850F831221A4E9F50E6003023DFA51
:103D6C00850882850983124035AA0AFB123E0B7026
:103D7C00147AFF7BFF123E0B606C88828983E50A04
:103D8C00F0A3E50BF0750A008007750E0E805F0539
:103D9C000A9002E5E0FAE50AC39A504AE50A75F082
:103DAC0017A4FAABF088828983A3A3E02AFAA3E0D4
:103DBC003BFB8A828B83123F49EC4D70D2750A17FC
:103DCC00750B00780A1223B9EEFCEFFD1211297461
:103DDC0002122165EEFCEFFD850882850983123BFA
:103DEC00EE1206078014750E098003750E0112473A
:103DFC007B850C82850D83123F60A90E02399A12C5
:103E0C0009798A108B11A810A911E84922E5082418
:103E1C0002F508E5093400F5098A828B83A3A3A374
:103E2C00E0A2E522851882851983AC82AD838E824F
:103E3C008F83123E468A0A8B0B22E0FAA3E0FB1218
:103E4C0008772274041221657F0A02227874EC121E
:103E5C0021A68C108D11EA2405F50CEB12445E752D
:103E6C000F00EA2402F50AEB123F43850A82F58320
:103E7C00123BEE12498D7003023F35750E008071B6
:103E8C00850C82850D83E06401704F8E828F83A335
:103E9C00A31223D08E828F83A3A3A3A3E0F5127564
:103EAC00130078121223B9EE2405F512EF3400F545
:103EBC001378121223B9123BE812099774061221D7
:103ECC0065E9F50F6014850C82850D83E4F01247CB
:103EDC007B851082851183123F607C177D007900F1
:103EEC00EEFAEFFB1211418E828F83E4F0A3F00502
:103EFC000E9002E5E0F8E50EC398501EE50E75F045
:103F0C0017A4F8A9F0850882850983A3A31248F3A6
:103F1C00123F49EC4D6003023E8C85088285098373
:103F2C0074FFF0A3F0E50F7006123BE812060DA922
:103F3C000F023CF3F50AEF3400F50B22A3123F4EAF
:103F4C00FD22E0FCA3E0228E828F83124783850E34
:103F5C0082850F83E8F0A3E9F022C082C08390022F
:103F6C00E1E06A7003A3E06B70067AE17B028004E7
:103F7C007A007B000232A874F71221A67F00EF753D
:103F8C00F003A4F8A9F0EC28F8ED39F988828983BC
:103F9C00E06A7003A3E06B7006E8FAE9FB800B0F94
:103FAC00EFC3940240D87A007B007F010222787420
:103FBC00F61221A612456C70067A007B008007A3CE
:103FCC00A3A3A3123BEE02462D74F21221A6E9FE26
:103FDC00740E12219A124035741012219A12449DBB
:103FEC008C828D83E06402703BA312477F888289A8
:103FFC0083E0F50CA3E0F9A80C7402687003742933
:10400C00697021750C02750D00780C1223B97808B3
:10401C001223B9780A1223B9EEF91209BB740612ED
:10402C0021658002790102469DE0F50AA3E0F50BBB
:10403C002274E81221A674FB12214FE9851882859F
:10404C001983F08A168B178C0E8D0F741F12219A00
:10405C0012449D742112219A124035742312219A14
:10406C001244877510008C828D83A3A3A3E0A2E475
:10407C00502A741D12219A123CFE8A828B83E5828F
:10408C0045837003024149790AAC0EAD0FAA16ABF9
:10409C00171221A4E9F510600302414C850E8285AC
:1040AC000F83E064026003024402A312477F850879
:1040BC0082850983A3858212858313E50E2406F578
:1040CC000CE50F12445E88828983E0FAA3E0F9EADA
:1040DC002400F514E439F51578141224430100007A
:1040EC00280128114107000228E841032858410003
:1040FC0029124301293A430229E1420329124304BC
:10410C0029A3430244EE4F703E850C82850D831229
:10411C004478FAE9FB8A828B83E0850A82850B83DB
:10412C001244B41223B98A828B83A3123F4EFDAA88
:10413C0008AB091211297402122165800375100E47
:10414C00A91074050248E175100B80F4EE4F70F75E
:10415C00850A82850B837401F012448D8508828553
:10416C000983F07C007D00850E82850F83A3A3A3B9
:10417C00A3E02401FAA3E03400FB120877EA4B60B9
:10418C00418A828B83E02402F8850A82850B83E0C6
:10419C0028F0EA2404F8EB3400F988828983E0855E
:1041AC0012828513831244C61244B41223B98A8234
:1041BC008B83123F48E5082403FAE5093400FB021F
:1041CC00413F850A82850B83E02404F07C047D004A
:1041DC007900AA12AB1312114102414CEE4F60034D
:1041EC0002415312448DFEA3E0FF850A82850B83A6
:1041FC007404F0EE850882850983F0EF85128285C0
:10420C001383F0740312219AAC82AD83EEFAEFFBA8
:10421C0012455A70030242BE8A828B83A3A31244B6
:10422C0083740112219A85820E85830F780E1223D6
:10423C00B9740512219A1223D07CFF7DFF12087DE0
:10424C0074041221658B0FEA450F7033850C82853F
:10425C000D831244631223B9850C82850D83A3123E
:10426C0023D07C027D007AE07B861206A9740412AE
:10427C002165E9700A740112219A74FFF0A3F08E83
:10428C00828F83E064027034750C02750D00780C1B
:10429C001223B98E828F83123F48E5082404FAE575
:1042AC0009123874122165850A82850B83E0240279
:1042BC008009740112219AEEF0A3EFF0740112211F
:1042CC009A124474F0740112219AA312446CA3A3A1
:1042DC00A3F002414CEE4F6003024153850C8285E2
:1042EC000D83123F49AA16AB171209AF850A8285B6
:1042FC000B837402F0EA850882850983F0851282AB
:10430C00851383EB80CBEE4F600302415312448D37
:10431C00F8A3E0F9850A82850B837402F0E885081E
:10432C0082850983F0E985128285138380A3850C2D
:10433C0082850D83123BEE121123EAFC8C82A8823B
:10434C00C39EE49F404BE86E7001EF70047C0080CC
:10435C001F851882851983E0FAEE2AFAEF3400FBE8
:10436C00C3EA98EB94005003E08004EECCC39CFCB1
:10437C00EC850A82850B83F08C0A750B00780A1287
:10438C0023B9850C82850D83E02EFCA3E03F02410E
:10439C003A75100702414CEE4F6003024153850CF5
:1043AC0082850D8312477F850A82850B837407F003
:1043BC008882898312446C124454E08512828513DE
:1043CC0083F0E82402FAE93400FB8A828B831244DE
:1043DC006C1244A5124474A31244AE12447DF0E84E
:1043EC002405F8E93400F98882898312447DA312EC
:1043FC0044C6A30242DA741D12219A124565700359
:10440C0002414912477F880C890DE8450D70030263
:10441C0041498E108F1178101223B9780A1223B9E2
:10442C0078081223B9740612219AE0F9AC0EAD0F7C
:10443C00AA16AB17850C82850D831221A474061263
:10444C002165E9F51002414CF088828983A322F59D
:10445C000CEF3400F50D22E0F50E750F00780E22EE
:10446C00E0850882850983221244CD22124783E815
:10447C00221244CDA3A322A3A3A3A3E0FEA3E0FF97
:10448C0022850C82850D83E0F8A3E0F5838882E019
:10449C0022E0F508A3E0F50922A3A3F08A828B831E
:1044AC00A322123160A3A322F08A828B831244BD13
:1044BC0022E0F50A750B00780A221244541244CDFE
:1044CC0022E0850882850983A3A32274EE1221A61B
:1044DC0074FE12214F8A0A8B0BECFAEDFB7414124A
:1044EC00219AE0F510A3E0F511741612219AE0FE62
:1044FC00741812219AE0F50EA3E0F50F8518828549
:10450C001983AC82AD8312455A603E851882851999
:10451C0083124565602FA3A312449DE508450960ED
:10452C0024780E1223B978101223B9EEF9AC0CAD25
:10453C000DAA0AAB0B8508828509831221A4740489
:10454C001221658006790E8002790102399A1208CF
:10455C00778A0C8B0DEA450D22123BF212456C2228
:10456C001209438A828B83E58245832274F61221D9
:10457C00A674FE12214F740C12219A1244788518DD
:10458C0082851983F0740112219AE9F0E4F508F59B
:10459C000978081223B975080278081223B9740433
:1045AC0012219A85820885830978081223B9120989
:1045BC009774061221657402122165806474F712D7
:1045CC0021A6EAFEEBFF89087C187D031209AFEAED
:1045DC005402600BA908EEFAEFFB12086B8002790B
:1045EC0001023FB674F61221A674FF6A700374FFC1
:1045FC006B701C7B00EB75F003A4F8A9F0EC28F8A9
:10460C00ED39F91246320BEBC39402501480E612CA
:10461C00097F8A088B09A808A909E8496003124692
:10462C00327F020222788882898374FF12315EE421
:10463C00F02274F61221A612097F8A828B83E582FE
:10464C0045836006A3A3E0FA80027A007B0080D148
:10465C0074F21221A68A088B09ECFEEDFF740E127F
:10466C00219AE0F50A1246A2701CEEFCEFFD7AFFCF
:10467C007BFF1246A270047911801688828983E52B
:10468C0008F0A3E509F088828983A3A3E50AF079F1
:10469C00007F0602227812097F8A0C8B0DA80CA9C8
:1046AC000DE8492274EE1221A6EAFEEBFF8C088D70
:1046BC0009890C741212219A12477F741412219AD0
:1046CC00123F49741612219A123BEE750D00EC4DF7
:1046DC0060030247737402650C600302476E8882A4
:1046EC008983123F4EF9EC2400F50EE439F50FEAFC
:1046FC00F4F8EBF4F9EC58F8E50F59F9E849705D6A
:10470C00E5082406F8E5093400F9880A890B888243
:10471C00F5831238831209AF8A108B11E50E6510E0
:10472C007004E50F65116042780E1223B9850A8278
:10473C00850B831238831209B57402122165E9F5D1
:10474C000D7027780E1223B9850882850983A3A3DF
:10475C001238811209CD7402122165800D750D80FD
:10476C008008750D0D8003750D0BA90D023E548E3E
:10477C00828F8312478322E0F8A3E0F92274E812B7
:10478C0021A674E712214F851882851983EAF0A3BC
:10479C00EBF08C168D17890E743112219AE0F512FC
:1047AC00A3E0F513743312219AE0F514A3E0F51588
:1047BC00743512219AE0F50F750800750900E509AA
:1047CC0075F003A4F8A9F08518828519831248F3B3
:1047DC00E0F47003A3E0F470030248D1EE2402F578
:1047EC000CEF1248E9E070030248D185160A8517D0
:1047FC000B780A1223B9AC14AD15AA12AB1312091B
:10480C003774021221658A0A8B0BEA450B7003027E
:10481C0048D1E4F510F51178101223B97406122161
:10482C009A85821085831178101223B9740912218C
:10483C009A85821085831178101223B9851282858E
:10484C001383A3A3A3A31223D07914AC0AAD0B8EAC
:10485C00828F83124907122165E97069850A828566
:10486C000B83A3A3A3A312477F740212219A123FB6
:10487C0060850C82850D83E0A2E05018A90E7402AD
:10488C0012219AAC82AD838E828F83123BEE12087A
:10489C008FE94208850C82850D83E0A2E15026E564
:1048AC000FF50A780A1223BDA90E740312219AACD3
:1048BC0082AD838E828F83123BEE120889740112B3
:1048CC002165E942080509E509C394025003024732
:1048DC00CAA90874191221657F100222783400F5D8
:1048EC000D850C82F58322E028FEA3E039FF8E8231
:1048FC008F83227916850A82850B83123BF212096B
:10490C009174082274F21221A6EAFEEBFF890B7453
:10491C0001650B600E7402650B70637901120BA7B5
:10492C00E9705BEEFAEFFB12498D6047750A008067
:10493C000B7C177D007900121141050A9002E5E00D
:10494C00F8E50AC3985021E50A75F017A4F8A9F008
:10495C00850882850983A3A3E028FAA3E039FB8AA2
:10496C00828B831232AF70C985088285098374FFEC
:10497C00F0A3F07C187D03EEFAEFFB1209A90246B6
:10498C009D1209798A088B09EA45092274F21221D1
:10499C00A68A088B09ECFEEDFF740E12219A1240C8
:1049AC0035900A97E0F4603D7A097B00121153EAC6
:1049BC004B60328A828B8374B1F0A3E41244A7A3B8
:1049CC001244A5A3E508F0A3E5091249F4EEF0A3FF
:1049DC00EF1249F4A3A3E50AF0A3E50BF0900A97B4
:1049EC00E0F912115F02469DF08A828B83A3A3A388
:1049FC00A3A322C082C0839061907404F0A3744876
:104A0C00F0A37402F09061807440F09061BC740368
:104A1C00F09061877419F0906265741BF090619C42
:104A2C00740DF090619A7433F0A37455F09061A0FA
:104A3C00743AF090055CE064017009C2919003C671
:104A4C00746780059003C67461F0903022E49390F3
:104A5C006186F090301CE493F46027E493540FF8D3
:104A6C00906185E0686012E5C654804449F5C6E55E
:104A7C009E547F644970F8E8F053C680E59E547FDD
:104A8C0070FA7905120EFB024C41C082C083E954C6
:104A9C000FF9906185E0696012E5C654804449F5D0
:104AAC00C6E59E547F644970F8E9F053C680E59ED4
:104ABC00547F70FA024C41C082C083E5A8F853A819
:104ACC007E906181E4F0A3F0A3F0C2BA539AFEC2C7
:104ADC0089759B00C2C275E90075910075BF0075A0
:104AEC00A91175B905906181F0A374C0F0A3E4F02D
:104AFC00D2BA439A0174805842A8024C41C082C079
:104B0C008374F812214F9003C4E0F8A3E0F9E8494C
:104B1C007003024C379003C4E0544060237908853D
:104B2C001882851983AA82AB83120D63851882853E
:104B3C001983AA82AB83120A399003C4E054BFF0E4
:104B4C00E054806010790C7A807B05120D63900321
:104B5C00C4E0547FF0E0A2E0503190619A7433F0DD
:104B6C00A37455F09061A0743AF090055CE0640178
:104B7C007009C2919003C6746780059003C6746176
:104B8C00F0120A3F9003C4E054FEF0E0540260318E
:104B9C0090619A743FF0A3745AF09061A0747FF006
:104BAC0090055CE064017009D2919003C674718029
:104BBC00059003C6746AF0120A3F9003C4E054FDDA
:104BCC00F0E054046013903020E493906186F0126E
:104BDC000A459003C4E054FBF0E054086013903095
:104BEC0021E493906186F0120A459003C4E054F7D7
:104BFC00F0E054106013903022E493906186F01230
:104C0C000A459003C4E054EFF0E05420600A120A05
:104C1C00459003C4E054DFF0A3E05401600D120C86
:104C2C008B120A4B9003C5E054FEF07408122165F8
:104C3C008003F0A3F0D083D08202013574EC1221F2
:104C4C00A674F412214F851882851983AC82AD832A
:104C5C007583857582FE740412206290302093F463
:104C6C006003024DD5907808E0C394025003024DC6
:104C7C00B5740412219AAC82AD83758385758283D9
:104C8C0074081220628518828519838582128583A7
:104C9C0013740412219AAC82AD83750EFF750FFF4D
:104CAC007FFF7E00750C48750D78801574086E704A
:104CBC0003024D4874096E7003024D48740A6E600D
:104CCC007B850C82850D83780812201F8C828D8346
:104CDC00A909E50AC9F8881074187808121F4DE55F
:104CEC00104508F8C3E098A3E099850C82850D83E4
:104CFC00780812201F40188C828D83741878081243
:104D0C001F4DE5104508F8E0C398F8A3E0801C742B
:104D1C00187808121F4DE5104508FAE9FB8C828DB6
:104D2C0083E0F8A3E0F9EAC398F8EB99F9C3E895A6
:104D3C000EE9950F5006880E890FEEFF0EE50C2438
:104D4C0004F50CE50D3400F50DEEC394135003027D
:104D5C004CB874FF650E700474FF650F60238F08E8
:104D6C007402780812213C74482508F58274783551
:104D7C0009F583780812201F851282851383E508B4
:104D8C00F0EC24020C0CED3400FD851282851383AB
:104D9C00A3858212858313740C12219AE5826C70A0
:104DAC0003E5836D6003024CA67508017509007854
:104DBC00081223B9740212219AAC82AD837A087B53
:104DCC000C12138D7402122165740C1221657F0C68
:104DDC00022278C082C0839061AE7468F0A3746ABA
:104DEC00F090624574FBF0A304F053F4FD43FE0213
:104DFC0090055C7401F09061A0E0643A90619A7047
:104E0C00237433F0A37455F09061A0743AF07401DC
:104E1C0064017009C2919003C6746780289003C620
:104E2C0074618021743FF0A3745AF09061A0747F78
:104E3C00F0740164017009D2919003C674718005FD
:104E4C009003C6746A024C407F04022278C082C070
:104E5C008390050EE06401700A900513E0600479FC
:104E6C000C80027900024C41C082C08375E1F19044
:104E7C000511E06055146008146059146051805994
:104E8C00120C9D900507E0F97A087B05120E7D90B7
:104E9C00860212203D120EB39085EE12203D120EAA
:104EAC0089900512E0F9120E957901120EEF90051A
:104EBC0005E02416F8A3E03400F98882898374B5E0
:104ECC00F0A3740CF07900024C41120CA380B412C4
:104EDC000CA980AF120CAF80AA791280EA74F4127C
:104EEC0021A675D90D9004F6E0A2E0E4331313F873
:104EFC00900507E0C4333354C0484401F5D9780514
:104F0C00790588828983A3A3A3E0F5D98882898354
:104F1C00A3A882A983E8640B7003E9640570E378A5
:104F2C00F6790488828983A3E0F5D988828983A3E2
:104F3C00A882A983E864FC7003E9640470E575E158
:104F4C00959004F6E0F97AF77B04120E83900AB977
:104F5C007449F0A3740CF0A374ABF0A3740DF0A31C
:104F6C0074ABF0A3740DF0A374ABF0A3740DF0A3A9
:104F7C00744FF0A3740CF0A374ABF0A3740DF0A3F6
:104F8C007467F0A3740CF0900AC774ABF0A3740DA3
:104F9C00F0A374ABF0A3740DF0A374ABF0A3740D79
:104FAC00F0A374ABF0A3740DF0A374ABF0A3740D69
:104FBC00F0A374ABF0A3740DF0900505E0F8A3E03A
:104FCC00F5838882A3A3780812201F9086067808A0
:104FDC00121F989085F67808121FE6900505E024BC
:104FEC000EF8A3E03400F988828983780812202E09
:104FFC00900505E02414F8A3E03400F98882898335
:10500C007413F09003C27402F0024E54C082C08339
:10501C00900517E02407F5D9900507E0C433335405
:10502C00C0F5D97805790588828983A3A3A3E0F517
:10503C00D988828983A3A882A983E8640B7003E9C9
:10504C00640570E3900517E0601F78057905FAE8B0
:10505C002413F582E93400F583E0F5D9888289833D
:10506C00A3A882A9831AEA70E6900537E02407F515
:10507C00D9900507E0C4333354C04404F5D97805FE
:10508C00790588828983A3A3A3E0F5D988828983D3
:10509C00A3A882A983E8640B7003E9640570E3900C
:1050AC000537E0601F78057905FAE82433F582E9C5
:1050BC003400F583E0F5D988828983A3A882A9837B
:1050CC001AEA70E675E195900AB97455F0A3740C60
:1050DC00F0A374ABF0A3740DF0A374ABF0A3740D38
:1050EC00F0A374ABF0A3740DF0A3744FF0A3740C85
:1050FC00F0A374ABF0A3740DF0A37467F0A3740C5D
:10510C00F0900AC774ABF0A3740DF0A374ABF0A3CA
:10511C00740DF0A374ABF0A3740DF0A374ABF0A3F7
:10512C00740DF0A374ABF0A3740DF0A374ABF0A3E7
:10513C00740DF09085DE12203D900505E0240EF8EC
:10514C00A3E03400F988828983122049900505E098
:10515C002414F8A3E03400F9888289837412F09047
:10516C0003C27401024C40C082C083900517E02436
:10517C0007F5D9900507E0C4333354C04402F5D980
:10518C007805790588828983A3A3A3E0F5D9888261
:10519C008983A3A882A983E8640B7003E964057072
:1051AC00E3900517E0601F78057905FAE82413F5FC
:1051BC0082E93400F583E0F5D988828983A3A8823B
:1051CC00A9831AEA70E675E195900AB97461F0A3A7
:1051DC00740CF0A37461F0A3740CF0A37461F0A3CD
:1051EC00740CF0A37461F0A3740CF0A37461F0A3BD
:1051FC00740CF0A37461F0A3740CF0A37467F0A3A7
:10520C00740CF0900AC774ABF0A3740DF0A374ABDC
:10521C00F0A3740DF0A374ABF0A3740DF0A374ABF6
:10522C00F0A3740DF0A374ABF0A3740DF0A374ABE6
:10523C00F0A3740DF09085DE12203D900505E0245E
:10524C000EF8A3E03400F988828983122049900576
:10525C0005E02414F8A3E03400F9888289837414DF
:10526C00F09003C27404024C40C082C083900517B6
:10527C00E02407F5D9900507E0C4333354C0440645
:10528C00F5D97805790588828983A3A3A3E0F5D99C
:10529C0088828983A3A882A983E8640B7003E964DC
:1052AC000570E3900517E0601F78057905FAE8248E
:1052BC0013F582E93400F583E0F5D988828983A35C
:1052CC00A882A9831AEA70E6900537E02407F5D97D
:1052DC00900507E0C4333354C04404F5D9780579FC
:1052EC000588828983A3A3A3E0F5D988828983A347
:1052FC00A882A983E8640B7003E9640570E3900548
:10530C0037E0601F78057905FAE82433F582E93433
:10531C0000F583E0F5D988828983A3A882A9831A32
:10532C00EA70E675E195900AB9745BF0A3740CF021
:10533C00A374ABF0A3740DF0A374ABF0A3740DF0D5
:10534C00A374ABF0A3740DF0A374ABF0A3740DF0C5
:10535C00A374ABF0A3740DF0A37467F0A3740CF0FA
:10536C00900AC774ABF0A3740DF0A374ABF0A374E4
:10537C000DF0A374ABF0A3740DF0A374ABF0A37495
:10538C000DF0A374ABF0A3740DF0A374ABF0A37485
:10539C000DF09085DE12203D900505E0240EF8A35B
:1053AC00E03400F988828983122049900505E024B5
:1053BC0014F8A3E03400F9888289837415F0900303
:1053CC00C27403024C40C082C083900505E0F8A370
:1053DC00E0F5838882A3A3A3A3A3A3E4024C3E74A9
:1053EC00F71221A69003F0E0F875F004A4C8AAF017
:1053FC002AF974F228F8740339F9E82405FAE93427
:10540C0000FB8A828B83E0FCA3E0FD88828983A366
:10541C00A3A3A3A3A3A3A3A3ECF0A3EDF088828979
:10542C0083A3A3A3A3A3A3A3E024FFF8A3E034FFC7
:10543C00F98A828B83E8F0A3E902569074F7122163
:10544C00A6EAFEEBFF9061D0E0600302552575D90A
:10545C000E75D90375D904EE248CF582EF3400F562
:10546C0083E5822408F8E5833400F9E0F5D9A3E854
:10547C0065827003E9658370F2EE2484F582EF3463
:10548C0000F583E5822404F8E5833400F9E0F5D9CE
:10549C00A3E865827003E9658370F275E19579087C
:1054AC00EE248CFAEF3400FB120D577904EE2484B1
:1054BC00FAEF3400FB120D577C00EEF8EFF9ECFA22
:1054CC00C3E49AFA95E0FBEE2AFAEF3BFBEA248B55
:1054DC00F582EB3400F583E0C0E0E824ABF582E91B
:1054EC003400F583D0E0F00C88828983A3A882A9CC
:1054FC0083ECC3940840C7EE2470F582EF3400F5BA
:10550C0083E0F8A3E0F9EE2472F582EF3400F58322
:10551C00E8F0A3E9F0790180027900025691C0828B
:10552C00C08375D90275D90375D90575E195EA243F
:10553C0070F582EB3400F583E0F8A3E0F9EA24720D
:10554C00F582EB3400F583E8F0A3E9F07901024C25
:10555C004174F61221A6EAFEEBFF9005607406F08A
:10556C0075086075090578081223B97C0179031256
:10557C000D9F740212216575D90675D90375826069
:10558C00758305E0F5D9A3E58264657004E5836451
:10559C000570F075E1959003C2E06408701EEE246E
:1055AC0070F582EF3400F583E0F8A3E0F9EE247295
:1055BC00F582EF3400F583E8F0A3E9F079010257A6
:1055CC005D74F61221A6EAFEEBFF9061D0E07066E6
:1055DC007801900560740BF09003C2E064077019B9
:1055EC0075086075090578081223B97C01790312D6
:1055FC000D9F74021221657805740128F5D975D9AF
:10560C0003758260758305E8FAE0F5D9A31AEA7090
:10561C00F875E195EE2470F582EF3400F583E0F82F
:10562C00A3E0F9EE2472F582EF3400F583E8F0A3E1
:10563C00E9F079018002790002575D74F71221A616
:10564C00EAFEEBFF75D90375D90375D90DEE24DE8F
:10565C00F582EF3400F583E0F5D975E19579041204
:10566C000EB9EE2470F582EF3400F583E0F8A3E078
:10567C00F9EE2472F582EF3400F583E8F0A3E9F03B
:10568C0079018001F07F0102227874F61221A6EADA
:10569C00FEEBFF9061D0E0F87480C398FAEE24839F
:1056AC00F582EF3400F583E0600478048002780022
:1056BC00E8240BF8EAC398500302575B7D09900568
:1056CC0060EDF0EE24E3F8EF3400F97A617B057CB1
:1056DC000888828983E08A828B83F088828983A3FD
:1056EC00A882A9838A828B83A3AA82AB831CEC70C9
:1056FC00E0EE2483F582EF3400F583E0601D75083D
:10570C006075090578081223B97C097903EEFAEF64
:10571C00FB120D9F74021221657D0D74012DF5D9BC
:10572C0075D9037582607583058D08E0F5D9A315CD
:10573C0008E50870F675E1957904120EB9EE241D92
:10574C00F582EF3400F583E4F0A3F079018002795F
:10575C00007F0202227874F61221A6EAFEEBFF907B
:10576C0061D0E0F87480C398FAEE2483F582EF34AC
:10577C0000F583E06004780480027800E82408F8DF
:10578C00EAC39850030258627D06900560740CF0D1
:10579C009003DFE0900561F07AE07B037862790595
:1057AC007C028A828B83E088828983F08A828B8355
:1057BC00A3AA82AB8388828983A3A882A9831CECC9
:1057CC0070E07AE27B037C028A828B83E088828998
:1057DC0083F08A828B83A3AA82AB8388828983A37A
:1057EC00A882A9831CEC70E0EE2483F582EF3400D0
:1057FC00F583E0601D75086075090578081223B9FA
:10580C007C067903EEFAEFFB120D9F7402122165F0
:10581C007D0A74012DF5D975D903758260758305E0
:10582C008D08E0F5D9A31508E50870F675E19579B2
:10583C0004120EB9EE2470F582EF3400F583E0F813
:10584C00A3E0F9EE2472F582EF3400F583E8F0A3BF
:10585C00E9F079018002790002575D74F61221A6F5
:10586C00EAFEEBFF9061D0E0F87480C398FAEE2466
:10587C0083F582EF3400F583E060047804800278CD
:10588C0000E82404F8EAC3985003025941780290C6
:10589C000560E8F0EE24F5F582EF3400F583E09036
:1058AC000561F0EE2483F582EF3400F583E0601B94
:1058BC0075086075090578081223B97C027903EE26
:1058CC00FA120D9F74021221657806740128F5D91D
:1058DC0075D9037582607583058808E0F5D9A31521
:1058EC0008E50870F675E195EE2474F582EF340046
:1058FC00F583E4F0EE2480F582EF3400F583E4F0D8
:10590C00EE241DF582EF3400F583E4F0A3F0790466
:10591C00120EB9EE240DF582EF3400F583E0F8A3F6
:10592C00E0F9EE2472F582EF3400F583E8F0A3E998
:10593C00F079018002790002575D74F61221A6906D
:10594C0061D0E0F87480C398FCEA2483F582EB34D0
:10595C0000F583E06004780480027800E82404F801
:10596C00ECC398405B79029005607407F0EA24F66A
:10597C00F582EB3400F583E0900561F0EA2483F5C1
:10598C0082EB3400F583E0601875086075090578C2
:10599C00081223B97C0209120D9F74021221657939
:1059AC0006740129F5D975D903758260758305E9EB
:1059BC00F8E0F5D9A318E870F875E1957901800243
:1059CC00790002575D74F51221A6E9FCA2AFE4330D
:1059DC00F50AC2AF7D0080010DEA246FF582EB342D
:1059EC0000F583E0F8EDC398501A8D08EA2508F805
:1059FC00EB3400F9E8246BF582E93400F583E06CB4
:105A0C0070D68024EA246FF8EB3400F9E0FEEA2E1D
:105A1C00FAEB3400FBEA246BF582EB3400F583ECF3
:105A2C00F088828983E004F0E50AA2E092AF7F035C
:105A3C0002227874F61221A6A2AFE433FDC2AFEABB
:105A4C00246FF582EB3400F583E014F07C006036B3
:105A5C008C08EA2508F8EB3400F9E8246CF582E9A7
:105A6C003400F583E0C0E0E8246BF582E93400F5FE
:105A7C0083D0E0F00CEA246FF582EB3400F583E080
:105A8C00F8ECC39840CAEA246EF582EB3400F58337
:105A9C0074FFF0EA246AF582EB3400F583E4F0ED50
:105AAC00A2E092AF02575DC082C083E5A8F8C2AFF6
:105ABC00EA246BF582EB3400F583E9F0EA246AF50D
:105ACC0082EB3400F583E4F0E8A2E792AF024C419C
:105ADC0074F31221A6EAFEEBFFECFAEDFB8A828B43
:105AEC0083A3A3A3A3E0541FF0EE2436F582EF3476
:105AFC0000F583E4F0F50AEEFCEFFD8A828B83E07F
:105B0C00C0E0EC245DF582ED3400F583D0E0F07557
:105B1C000B00E50A33333354F8F50C8A828B83E09F
:105B2C00F508750900E50B780812211DE508A2E0BF
