:020000040000FA
:1000000002002700000080FB120051B9000302002B
:10001000117582DE758300740012003375820375DA
:100020008300740012003375D0007581BF759F0086
:10003000020008C09FF59FE473D09F22D083D08236
:10004000C09FE493C0E0740193C0E0740293F59FF5
:100050002279012212003C60000012003C8F000057
:10006000EAF8EBF9E824FFFAE934FFFBE849601C01
:1000700078007900C3E89417E99402A2D265D033DE
:1000800050DEE82401F8E93400F980E8020039C0C4
:1000900082C083C280C282C284C286C280C282C23F
:1000A00084D2867AF47B01120054C280D282C28448
:1000B000C2867AF47B01120054C280C282D284C20A
:1000C000867AF47B01120054D280C282C284C28636
:1000D0007AF47B01120054D083D08202003943FDB0
:1000E000557E007F02800312005AEEF8EFF9E824F3
:1000F000FFFEE934FFFFE84970ED7E007F0280EAF1
:0400000500000027D0
:00000001FF
