:020000040000FA
:1000000002003700000080FB120067B90003020005
:1000100021E4900200780279018002F0A3D8FCD993
:10002000FA75825575830174001200497582037553
:100030008300740012004975D0007581BF751000EF
:10004000751102759F00020008C09FF59FE473D0F0
:100050009F22D083D082C09FE493C0E0740193C0FC
:10006000E0740293F59F22790122120052280100C8
:100070001200523401002510C582C0E0E51134FFA2
:10008000C583C0E0E510C3958224F810AF088583CE
:10009000118582108008858311858210D2AFCEF041
:1000A000A3E520F0A37808E608F0A3DEFAEFF0A3BA
:1000B000E58124FAF8E608F0A3E608F0A3E608F0E4
:1000C000A30808E608F0A3E608F0A315811581D07F
:1000D000E0FED0E0F8158115811581E8C0E0EEC0A2
:1000E000E022851183851082E0A3FEE0A3F520784D
:1000F00008E0A3F608DFFAE0A3FFE0A3C0E0E0A376
:10010000C0E0E0A3C0E0E0A3C0E0E0A3C0E010AF27
:10011000088582108583118008858210858311D21D
:10012000AFD083D08202004F74FF29F8E8F9E8705D
:10013000F702004F74F7120076E9FE800A79F51293
:10014000006A79F512006AEEF874FF28FEE870ED97
:100150007F010200E243FD557800790290020074AD
:100160001EF0C280C282C284C286D280C282C28491
:10017000C286900200E0F9120070C280C282D2846E
:10018000C286900200E0F9120070C280D282C2845E
:10019000C286900200E0F9120070C280C282C2845E
:1001A000D286900200E0F9120070C280C282C2843E
:0C01B000C286900200E0F912007080AEE0
:0400000500000037C0
:00000001FF
